{
  "_format": "hh-sol-artifact-1",
  "contractName": "AvatarArena",
  "sourceName": "contracts/AvatarArena.sol",
  "abi": [
    {
      "inputs": [],
      "stateMutability": "nonpayable",
      "type": "constructor"
    },
    {
      "anonymous": false,
      "inputs": [
        {
          "indexed": true,
          "internalType": "address",
          "name": "owner",
          "type": "address"
        },
        {
          "indexed": true,
          "internalType": "address",
          "name": "approved",
          "type": "address"
        },
        {
          "indexed": true,
          "internalType": "uint256",
          "name": "tokenId",
          "type": "uint256"
        }
      ],
      "name": "Approval",
      "type": "event"
    },
    {
      "anonymous": false,
      "inputs": [
        {
          "indexed": true,
          "internalType": "address",
          "name": "owner",
          "type": "address"
        },
        {
          "indexed": true,
          "internalType": "address",
          "name": "operator",
          "type": "address"
        },
        {
          "indexed": false,
          "internalType": "bool",
          "name": "approved",
          "type": "bool"
        }
      ],
      "name": "ApprovalForAll",
      "type": "event"
    },
    {
      "anonymous": false,
      "inputs": [
        {
          "indexed": false,
          "internalType": "uint256",
          "name": "battleIndex",
          "type": "uint256"
        }
      ],
      "name": "BattleComplete",
      "type": "event"
    },
    {
      "anonymous": false,
      "inputs": [
        {
          "indexed": true,
          "internalType": "address",
          "name": "previousOwner",
          "type": "address"
        },
        {
          "indexed": true,
          "internalType": "address",
          "name": "newOwner",
          "type": "address"
        }
      ],
      "name": "OwnershipTransferred",
      "type": "event"
    },
    {
      "anonymous": false,
      "inputs": [
        {
          "indexed": true,
          "internalType": "address",
          "name": "from",
          "type": "address"
        },
        {
          "indexed": true,
          "internalType": "address",
          "name": "to",
          "type": "address"
        },
        {
          "indexed": true,
          "internalType": "uint256",
          "name": "tokenId",
          "type": "uint256"
        }
      ],
      "name": "Transfer",
      "type": "event"
    },
    {
      "inputs": [
        {
          "internalType": "address",
          "name": "to",
          "type": "address"
        },
        {
          "internalType": "uint256",
          "name": "tokenId",
          "type": "uint256"
        }
      ],
      "name": "approve",
      "outputs": [],
      "stateMutability": "nonpayable",
      "type": "function"
    },
    {
      "inputs": [
        {
          "internalType": "address",
          "name": "owner",
          "type": "address"
        }
      ],
      "name": "balanceOf",
      "outputs": [
        {
          "internalType": "uint256",
          "name": "",
          "type": "uint256"
        }
      ],
      "stateMutability": "view",
      "type": "function"
    },
    {
      "inputs": [
        {
          "internalType": "uint256",
          "name": "tokenId",
          "type": "uint256"
        }
      ],
      "name": "getApproved",
      "outputs": [
        {
          "internalType": "address",
          "name": "",
          "type": "address"
        }
      ],
      "stateMutability": "view",
      "type": "function"
    },
    {
      "inputs": [
        {
          "internalType": "uint256",
          "name": "tokenId",
          "type": "uint256"
        }
      ],
      "name": "getAvatarWins",
      "outputs": [
        {
          "internalType": "uint256",
          "name": "",
          "type": "uint256"
        }
      ],
      "stateMutability": "view",
      "type": "function"
    },
    {
      "inputs": [],
      "name": "getLatestBattle",
      "outputs": [
        {
          "components": [
            {
              "components": [
                {
                  "internalType": "address",
                  "name": "player",
                  "type": "address"
                },
                {
                  "internalType": "uint256",
                  "name": "nft",
                  "type": "uint256"
                }
              ],
              "internalType": "struct Arena.Player[]",
              "name": "players",
              "type": "tuple[]"
            },
            {
              "internalType": "uint256",
              "name": "createdAt",
              "type": "uint256"
            },
            {
              "internalType": "int256",
              "name": "winner",
              "type": "int256"
            }
          ],
          "internalType": "struct Arena.Battle",
          "name": "",
          "type": "tuple"
        }
      ],
      "stateMutability": "view",
      "type": "function"
    },
    {
      "inputs": [
        {
          "internalType": "address",
          "name": "owner",
          "type": "address"
        },
        {
          "internalType": "address",
          "name": "operator",
          "type": "address"
        }
      ],
      "name": "isApprovedForAll",
      "outputs": [
        {
          "internalType": "bool",
          "name": "",
          "type": "bool"
        }
      ],
      "stateMutability": "view",
      "type": "function"
    },
    {
      "inputs": [],
      "name": "name",
      "outputs": [
        {
          "internalType": "string",
          "name": "",
          "type": "string"
        }
      ],
      "stateMutability": "view",
      "type": "function"
    },
    {
      "inputs": [],
      "name": "owner",
      "outputs": [
        {
          "internalType": "address",
          "name": "",
          "type": "address"
        }
      ],
      "stateMutability": "view",
      "type": "function"
    },
    {
      "inputs": [
        {
          "internalType": "uint256",
          "name": "tokenId",
          "type": "uint256"
        }
      ],
      "name": "ownerOf",
      "outputs": [
        {
          "internalType": "address",
          "name": "",
          "type": "address"
        }
      ],
      "stateMutability": "view",
      "type": "function"
    },
    {
      "inputs": [],
      "name": "renounceOwnership",
      "outputs": [],
      "stateMutability": "nonpayable",
      "type": "function"
    },
    {
      "inputs": [
        {
          "internalType": "address",
          "name": "to",
          "type": "address"
        },
        {
          "internalType": "string",
          "name": "uri",
          "type": "string"
        }
      ],
      "name": "safeMint",
      "outputs": [],
      "stateMutability": "nonpayable",
      "type": "function"
    },
    {
      "inputs": [
        {
          "internalType": "address",
          "name": "from",
          "type": "address"
        },
        {
          "internalType": "address",
          "name": "to",
          "type": "address"
        },
        {
          "internalType": "uint256",
          "name": "tokenId",
          "type": "uint256"
        }
      ],
      "name": "safeTransferFrom",
      "outputs": [],
      "stateMutability": "nonpayable",
      "type": "function"
    },
    {
      "inputs": [
        {
          "internalType": "address",
          "name": "from",
          "type": "address"
        },
        {
          "internalType": "address",
          "name": "to",
          "type": "address"
        },
        {
          "internalType": "uint256",
          "name": "tokenId",
          "type": "uint256"
        },
        {
          "internalType": "bytes",
          "name": "data",
          "type": "bytes"
        }
      ],
      "name": "safeTransferFrom",
      "outputs": [],
      "stateMutability": "nonpayable",
      "type": "function"
    },
    {
      "inputs": [
        {
          "internalType": "address",
          "name": "operator",
          "type": "address"
        },
        {
          "internalType": "bool",
          "name": "approved",
          "type": "bool"
        }
      ],
      "name": "setApprovalForAll",
      "outputs": [],
      "stateMutability": "nonpayable",
      "type": "function"
    },
    {
      "inputs": [
        {
          "internalType": "uint256",
          "name": "tokenId",
          "type": "uint256"
        }
      ],
      "name": "startBattle",
      "outputs": [],
      "stateMutability": "nonpayable",
      "type": "function"
    },
    {
      "inputs": [
        {
          "internalType": "bytes4",
          "name": "interfaceId",
          "type": "bytes4"
        }
      ],
      "name": "supportsInterface",
      "outputs": [
        {
          "internalType": "bool",
          "name": "",
          "type": "bool"
        }
      ],
      "stateMutability": "view",
      "type": "function"
    },
    {
      "inputs": [],
      "name": "symbol",
      "outputs": [
        {
          "internalType": "string",
          "name": "",
          "type": "string"
        }
      ],
      "stateMutability": "view",
      "type": "function"
    },
    {
      "inputs": [
        {
          "internalType": "uint256",
          "name": "index",
          "type": "uint256"
        }
      ],
      "name": "tokenByIndex",
      "outputs": [
        {
          "internalType": "uint256",
          "name": "",
          "type": "uint256"
        }
      ],
      "stateMutability": "view",
      "type": "function"
    },
    {
      "inputs": [
        {
          "internalType": "address",
          "name": "owner",
          "type": "address"
        },
        {
          "internalType": "uint256",
          "name": "index",
          "type": "uint256"
        }
      ],
      "name": "tokenOfOwnerByIndex",
      "outputs": [
        {
          "internalType": "uint256",
          "name": "",
          "type": "uint256"
        }
      ],
      "stateMutability": "view",
      "type": "function"
    },
    {
      "inputs": [
        {
          "internalType": "uint256",
          "name": "tokenId",
          "type": "uint256"
        }
      ],
      "name": "tokenURI",
      "outputs": [
        {
          "internalType": "string",
          "name": "",
          "type": "string"
        }
      ],
      "stateMutability": "view",
      "type": "function"
    },
    {
      "inputs": [],
      "name": "totalSupply",
      "outputs": [
        {
          "internalType": "uint256",
          "name": "",
          "type": "uint256"
        }
      ],
      "stateMutability": "view",
      "type": "function"
    },
    {
      "inputs": [
        {
          "internalType": "address",
          "name": "from",
          "type": "address"
        },
        {
          "internalType": "address",
          "name": "to",
          "type": "address"
        },
        {
          "internalType": "uint256",
          "name": "tokenId",
          "type": "uint256"
        }
      ],
      "name": "transferFrom",
      "outputs": [],
      "stateMutability": "nonpayable",
      "type": "function"
    },
    {
      "inputs": [
        {
          "internalType": "address",
          "name": "newOwner",
          "type": "address"
        }
      ],
      "name": "transferOwnership",
      "outputs": [],
      "stateMutability": "nonpayable",
      "type": "function"
    }
  ],
  "bytecode": "0x60806040523480156200001157600080fd5b506040518060400160405280600b81526020017f4176617461724172656e610000000000000000000000000000000000000000008152506040518060400160405280600381526020017f415652000000000000000000000000000000000000000000000000000000000081525081600090816200008f919062000430565b508060019081620000a1919062000430565b505050620000c4620000b8620000e860201b60201c565b620000f060201b60201c565b600c6001816001815401808255809150500390600052602060002090505062000517565b600033905090565b6000600b60009054906101000a900473ffffffffffffffffffffffffffffffffffffffff16905081600b60006101000a81548173ffffffffffffffffffffffffffffffffffffffff021916908373ffffffffffffffffffffffffffffffffffffffff1602179055508173ffffffffffffffffffffffffffffffffffffffff168173ffffffffffffffffffffffffffffffffffffffff167f8be0079c531659141344cd1fd0a4f28419497f9722a3daafe3b4186f6b6457e060405160405180910390a35050565b600081519050919050565b7f4e487b7100000000000000000000000000000000000000000000000000000000600052604160045260246000fd5b7f4e487b7100000000000000000000000000000000000000000000000000000000600052602260045260246000fd5b600060028204905060018216806200023857607f821691505b6020821081036200024e576200024d620001f0565b5b50919050565b60008190508160005260206000209050919050565b60006020601f8301049050919050565b600082821b905092915050565b600060088302620002b87fffffffffffffffffffffffffffffffffffffffffffffffffffffffffffffffff8262000279565b620002c4868362000279565b95508019841693508086168417925050509392505050565b6000819050919050565b6000819050919050565b6000620003116200030b6200030584620002dc565b620002e6565b620002dc565b9050919050565b6000819050919050565b6200032d83620002f0565b620003456200033c8262000318565b84845462000286565b825550505050565b600090565b6200035c6200034d565b6200036981848462000322565b505050565b5b8181101562000391576200038560008262000352565b6001810190506200036f565b5050565b601f821115620003e057620003aa8162000254565b620003b58462000269565b81016020851015620003c5578190505b620003dd620003d48562000269565b8301826200036e565b50505b505050565b600082821c905092915050565b60006200040560001984600802620003e5565b1980831691505092915050565b6000620004208383620003f2565b9150826002028217905092915050565b6200043b82620001b6565b67ffffffffffffffff811115620004575762000456620001c1565b5b6200046382546200021f565b6200047082828562000395565b600060209050601f831160018114620004a8576000841562000493578287015190505b6200049f858262000412565b8655506200050f565b601f198416620004b88662000254565b60005b82811015620004e257848901518255600182019150602085019450602081019050620004bb565b86831015620005025784890151620004fe601f891682620003f2565b8355505b6001600288020188555050505b505050505050565b61433f80620005276000396000f3fe608060405234801561001057600080fd5b506004361061014d5760003560e01c8063715018a6116100c3578063b88d4fde1161007c578063b88d4fde146103b0578063bf81ee6d146103cc578063c87b56dd146103ea578063d204c45e1461041a578063e985e9c514610436578063f2fde38b146104665761014d565b8063715018a6146103025780638da5cb5b1461030c5780638e6807f81461032a57806395d89b41146103465780639ab055b314610364578063a22cb465146103945761014d565b806323b872dd1161011557806323b872dd1461020a5780632f745c591461022657806342842e0e146102565780634f6ccce7146102725780636352211e146102a257806370a08231146102d25761014d565b806301ffc9a71461015257806306fdde0314610182578063081812fc146101a0578063095ea7b3146101d057806318160ddd146101ec575b600080fd5b61016c60048036038101906101679190612ad2565b610482565b6040516101799190612b1a565b60405180910390f35b61018a610494565b6040516101979190612bc5565b60405180910390f35b6101ba60048036038101906101b59190612c1d565b610526565b6040516101c79190612c8b565b60405180910390f35b6101ea60048036038101906101e59190612cd2565b61056c565b005b6101f4610683565b6040516102019190612d21565b60405180910390f35b610224600480360381019061021f9190612d3c565b610690565b005b610240600480360381019061023b9190612cd2565b6106f0565b60405161024d9190612d21565b60405180910390f35b610270600480360381019061026b9190612d3c565b610795565b005b61028c60048036038101906102879190612c1d565b6107b5565b6040516102999190612d21565b60405180910390f35b6102bc60048036038101906102b79190612c1d565b610826565b6040516102c99190612c8b565b60405180910390f35b6102ec60048036038101906102e79190612d8f565b6108ac565b6040516102f99190612d21565b60405180910390f35b61030a610963565b005b610314610977565b6040516103219190612c8b565b60405180910390f35b610344600480360381019061033f9190612c1d565b6109a1565b005b61034e610c07565b60405161035b9190612bc5565b60405180910390f35b61037e60048036038101906103799190612c1d565b610c99565b60405161038b9190612d21565b60405180910390f35b6103ae60048036038101906103a99190612de8565b610cb6565b005b6103ca60048036038101906103c59190612f5d565b610ccc565b005b6103d4610d2e565b6040516103e19190613145565b60405180910390f35b61040460048036038101906103ff9190612c1d565b610e80565b6040516104119190612bc5565b60405180910390f35b610434600480360381019061042f9190613208565b610e92565b005b610450600480360381019061044b9190613264565b610ec3565b60405161045d9190612b1a565b60405180910390f35b610480600480360381019061047b9190612d8f565b610f57565b005b600061048d82610fda565b9050919050565b6060600080546104a3906132d3565b80601f01602080910402602001604051908101604052809291908181526020018280546104cf906132d3565b801561051c5780601f106104f15761010080835404028352916020019161051c565b820191906000526020600020905b8154815290600101906020018083116104ff57829003601f168201915b5050505050905090565b600061053182611054565b6004600083815260200190815260200160002060009054906101000a900473ffffffffffffffffffffffffffffffffffffffff169050919050565b600061057782610826565b90508073ffffffffffffffffffffffffffffffffffffffff168373ffffffffffffffffffffffffffffffffffffffff16036105e7576040517f08c379a00000000000000000000000000000000000000000000000000000000081526004016105de90613376565b60405180910390fd5b8073ffffffffffffffffffffffffffffffffffffffff1661060661109f565b73ffffffffffffffffffffffffffffffffffffffff16148061063557506106348161062f61109f565b610ec3565b5b610674576040517f08c379a000000000000000000000000000000000000000000000000000000000815260040161066b90613408565b60405180910390fd5b61067e83836110a7565b505050565b6000600880549050905090565b6106a161069b61109f565b82611160565b6106e0576040517f08c379a00000000000000000000000000000000000000000000000000000000081526004016106d79061349a565b60405180910390fd5b6106eb8383836111f5565b505050565b60006106fb836108ac565b821061073c576040517f08c379a00000000000000000000000000000000000000000000000000000000081526004016107339061352c565b60405180910390fd5b600660008473ffffffffffffffffffffffffffffffffffffffff1673ffffffffffffffffffffffffffffffffffffffff168152602001908152602001600020600083815260200190815260200160002054905092915050565b6107b083838360405180602001604052806000815250610ccc565b505050565b60006107bf610683565b8210610800576040517f08c379a00000000000000000000000000000000000000000000000000000000081526004016107f7906135be565b60405180910390fd5b60088281548110610814576108136135de565b5b90600052602060002001549050919050565b600080610832836114ee565b9050600073ffffffffffffffffffffffffffffffffffffffff168173ffffffffffffffffffffffffffffffffffffffff16036108a3576040517f08c379a000000000000000000000000000000000000000000000000000000000815260040161089a90613659565b60405180910390fd5b80915050919050565b60008073ffffffffffffffffffffffffffffffffffffffff168273ffffffffffffffffffffffffffffffffffffffff160361091c576040517f08c379a0000000000000000000000000000000000000000000000000000000008152600401610913906136eb565b60405180910390fd5b600360008373ffffffffffffffffffffffffffffffffffffffff1673ffffffffffffffffffffffffffffffffffffffff168152602001908152602001600020549050919050565b61096b61152b565b61097560006115a9565b565b6000600b60009054906101000a900473ffffffffffffffffffffffffffffffffffffffff16905090565b3373ffffffffffffffffffffffffffffffffffffffff163073ffffffffffffffffffffffffffffffffffffffff16636352211e836040518263ffffffff1660e01b81526004016109f19190612d21565b602060405180830381865afa158015610a0e573d6000803e3d6000fd5b505050506040513d601f19601f82011682018060405250810190610a329190613720565b73ffffffffffffffffffffffffffffffffffffffff1614610a88576040517f08c379a0000000000000000000000000000000000000000000000000000000008152600401610a7f906137bf565b60405180910390fd5b6001600c805490501115610bfa5760006001600c80549050610aaa919061380e565b90506001600c8281548110610ac257610ac16135de565b5b906000526020600020906003020160000180549050148015610b7857503373ffffffffffffffffffffffffffffffffffffffff16600c8281548110610b0a57610b096135de565b5b9060005260206000209060030201600001600081548110610b2e57610b2d6135de565b5b906000526020600020906002020160000160009054906101000a900473ffffffffffffffffffffffffffffffffffffffff1673ffffffffffffffffffffffffffffffffffffffff16145b15610bb8576040517f08c379a0000000000000000000000000000000000000000000000000000000008152600401610baf906138b4565b60405180910390fd5b6001600c8281548110610bce57610bcd6135de565b5b90600052602060002090600302016000018054905003610bf857610bf2828261166f565b50610c04565b505b610c038161178c565b5b50565b606060018054610c16906132d3565b80601f0160208091040260200160405190810160405280929190818152602001828054610c42906132d3565b8015610c8f5780601f10610c6457610100808354040283529160200191610c8f565b820191906000526020600020905b815481529060010190602001808311610c7257829003601f168201915b5050505050905090565b6000600e6000838152602001908152602001600020549050919050565b610cc8610cc161109f565b83836118e6565b5050565b610cdd610cd761109f565b83611160565b610d1c576040517f08c379a0000000000000000000000000000000000000000000000000000000008152600401610d139061349a565b60405180910390fd5b610d2884848484611a52565b50505050565b610d36612a45565b6000600d60003373ffffffffffffffffffffffffffffffffffffffff1673ffffffffffffffffffffffffffffffffffffffff168152602001908152602001600020549050600c8181548110610d8e57610d8d6135de565b5b906000526020600020906003020160405180606001604052908160008201805480602002602001604051908101604052809291908181526020016000905b82821015610e5e57838290600052602060002090600202016040518060400160405290816000820160009054906101000a900473ffffffffffffffffffffffffffffffffffffffff1673ffffffffffffffffffffffffffffffffffffffff1673ffffffffffffffffffffffffffffffffffffffff16815260200160018201548152505081526020019060010190610dcc565b5050505081526020016001820154815260200160028201548152505091505090565b6060610e8b82611aae565b9050919050565b6000610e9e600f611bc0565b9050610eaa600f611bce565b610eb48382611be4565b610ebe8183611c02565b505050565b6000600560008473ffffffffffffffffffffffffffffffffffffffff1673ffffffffffffffffffffffffffffffffffffffff16815260200190815260200160002060008373ffffffffffffffffffffffffffffffffffffffff1673ffffffffffffffffffffffffffffffffffffffff16815260200190815260200160002060009054906101000a900460ff16905092915050565b610f5f61152b565b600073ffffffffffffffffffffffffffffffffffffffff168173ffffffffffffffffffffffffffffffffffffffff1603610fce576040517f08c379a0000000000000000000000000000000000000000000000000000000008152600401610fc590613946565b60405180910390fd5b610fd7816115a9565b50565b60007f780e9d63000000000000000000000000000000000000000000000000000000007bffffffffffffffffffffffffffffffffffffffffffffffffffffffff1916827bffffffffffffffffffffffffffffffffffffffffffffffffffffffff1916148061104d575061104c82611c6f565b5b9050919050565b61105d81611d51565b61109c576040517f08c379a000000000000000000000000000000000000000000000000000000000815260040161109390613659565b60405180910390fd5b50565b600033905090565b816004600083815260200190815260200160002060006101000a81548173ffffffffffffffffffffffffffffffffffffffff021916908373ffffffffffffffffffffffffffffffffffffffff160217905550808273ffffffffffffffffffffffffffffffffffffffff1661111a83610826565b73ffffffffffffffffffffffffffffffffffffffff167f8c5be1e5ebec7d5bd14f71427d1e84f3dd0314c0f7b2291e5b200ac8c7c3b92560405160405180910390a45050565b60008061116c83610826565b90508073ffffffffffffffffffffffffffffffffffffffff168473ffffffffffffffffffffffffffffffffffffffff1614806111ae57506111ad8185610ec3565b5b806111ec57508373ffffffffffffffffffffffffffffffffffffffff166111d484610526565b73ffffffffffffffffffffffffffffffffffffffff16145b91505092915050565b8273ffffffffffffffffffffffffffffffffffffffff1661121582610826565b73ffffffffffffffffffffffffffffffffffffffff161461126b576040517f08c379a0000000000000000000000000000000000000000000000000000000008152600401611262906139d8565b60405180910390fd5b600073ffffffffffffffffffffffffffffffffffffffff168273ffffffffffffffffffffffffffffffffffffffff16036112da576040517f08c379a00000000000000000000000000000000000000000000000000000000081526004016112d190613a6a565b60405180910390fd5b6112e78383836001611d92565b8273ffffffffffffffffffffffffffffffffffffffff1661130782610826565b73ffffffffffffffffffffffffffffffffffffffff161461135d576040517f08c379a0000000000000000000000000000000000000000000000000000000008152600401611354906139d8565b60405180910390fd5b6004600082815260200190815260200160002060006101000a81549073ffffffffffffffffffffffffffffffffffffffff02191690556001600360008573ffffffffffffffffffffffffffffffffffffffff1673ffffffffffffffffffffffffffffffffffffffff168152602001908152602001600020600082825403925050819055506001600360008473ffffffffffffffffffffffffffffffffffffffff1673ffffffffffffffffffffffffffffffffffffffff16815260200190815260200160002060008282540192505081905550816002600083815260200190815260200160002060006101000a81548173ffffffffffffffffffffffffffffffffffffffff021916908373ffffffffffffffffffffffffffffffffffffffff160217905550808273ffffffffffffffffffffffffffffffffffffffff168473ffffffffffffffffffffffffffffffffffffffff167fddf252ad1be2c89b69c2b068fc378daa952ba7f163c4a11628f55a4df523b3ef60405160405180910390a46114e98383836001611da4565b505050565b60006002600083815260200190815260200160002060009054906101000a900473ffffffffffffffffffffffffffffffffffffffff169050919050565b61153361109f565b73ffffffffffffffffffffffffffffffffffffffff16611551610977565b73ffffffffffffffffffffffffffffffffffffffff16146115a7576040517f08c379a000000000000000000000000000000000000000000000000000000000815260040161159e90613ad6565b60405180910390fd5b565b6000600b60009054906101000a900473ffffffffffffffffffffffffffffffffffffffff16905081600b60006101000a81548173ffffffffffffffffffffffffffffffffffffffff021916908373ffffffffffffffffffffffffffffffffffffffff1602179055508173ffffffffffffffffffffffffffffffffffffffff168173ffffffffffffffffffffffffffffffffffffffff167f8be0079c531659141344cd1fd0a4f28419497f9722a3daafe3b4186f6b6457e060405160405180910390a35050565b600c8181548110611683576116826135de565b5b906000526020600020906003020160000160405180604001604052803373ffffffffffffffffffffffffffffffffffffffff16815260200184815250908060018154018082558091505060019003906000526020600020906002020160009091909190915060008201518160000160006101000a81548173ffffffffffffffffffffffffffffffffffffffff021916908373ffffffffffffffffffffffffffffffffffffffff16021790555060208201518160010155505080600d60003373ffffffffffffffffffffffffffffffffffffffff1673ffffffffffffffffffffffffffffffffffffffff1681526020019081526020016000208190555061178881611daa565b5050565b6000600c60018160018154018082558091505003906000526020600020906003020190508060000160405180604001604052803373ffffffffffffffffffffffffffffffffffffffff16815260200184815250908060018154018082558091505060019003906000526020600020906002020160009091909190915060008201518160000160006101000a81548173ffffffffffffffffffffffffffffffffffffffff021916908373ffffffffffffffffffffffffffffffffffffffff1602179055506020820151816001015550504281600101819055507fffffffffffffffffffffffffffffffffffffffffffffffffffffffffffffffff81600201819055506001600c8054905061189f919061380e565b600d60003373ffffffffffffffffffffffffffffffffffffffff1673ffffffffffffffffffffffffffffffffffffffff168152602001908152602001600020819055505050565b8173ffffffffffffffffffffffffffffffffffffffff168373ffffffffffffffffffffffffffffffffffffffff1603611954576040517f08c379a000000000000000000000000000000000000000000000000000000000815260040161194b90613b42565b60405180910390fd5b80600560008573ffffffffffffffffffffffffffffffffffffffff1673ffffffffffffffffffffffffffffffffffffffff16815260200190815260200160002060008473ffffffffffffffffffffffffffffffffffffffff1673ffffffffffffffffffffffffffffffffffffffff16815260200190815260200160002060006101000a81548160ff0219169083151502179055508173ffffffffffffffffffffffffffffffffffffffff168373ffffffffffffffffffffffffffffffffffffffff167f17307eab39ab6107e8899845ad3d59bd9653f200f220920489ca2b5937696c3183604051611a459190612b1a565b60405180910390a3505050565b611a5d8484846111f5565b611a6984848484611eaf565b611aa8576040517f08c379a0000000000000000000000000000000000000000000000000000000008152600401611a9f90613bd4565b60405180910390fd5b50505050565b6060611ab982611054565b6000600a60008481526020019081526020016000208054611ad9906132d3565b80601f0160208091040260200160405190810160405280929190818152602001828054611b05906132d3565b8015611b525780601f10611b2757610100808354040283529160200191611b52565b820191906000526020600020905b815481529060010190602001808311611b3557829003601f168201915b505050505090506000611b63612036565b90506000815103611b78578192505050611bbb565b600082511115611bad578082604051602001611b95929190613c30565b60405160208183030381529060405292505050611bbb565b611bb68461204d565b925050505b919050565b600081600001549050919050565b6001816000016000828254019250508190555050565b611bfe8282604051806020016040528060008152506120b5565b5050565b611c0b82611d51565b611c4a576040517f08c379a0000000000000000000000000000000000000000000000000000000008152600401611c4190613cc6565b60405180910390fd5b80600a60008481526020019081526020016000209081611c6a9190613e92565b505050565b60007f80ac58cd000000000000000000000000000000000000000000000000000000007bffffffffffffffffffffffffffffffffffffffffffffffffffffffff1916827bffffffffffffffffffffffffffffffffffffffffffffffffffffffff19161480611d3a57507f5b5e139f000000000000000000000000000000000000000000000000000000007bffffffffffffffffffffffffffffffffffffffffffffffffffffffff1916827bffffffffffffffffffffffffffffffffffffffffffffffffffffffff1916145b80611d4a5750611d4982612110565b5b9050919050565b60008073ffffffffffffffffffffffffffffffffffffffff16611d73836114ee565b73ffffffffffffffffffffffffffffffffffffffff1614159050919050565b611d9e8484848461217a565b50505050565b50505050565b60004233604051602001611dbf929190613fcd565b6040516020818303038152906040528051906020012060001c90506000600282611de99190614028565b90506000600c8481548110611e0157611e006135de565b5b906000526020600020906003020190508181600201819055506000816000018381548110611e3257611e316135de565b5b90600052602060002090600202016001015490506001600e60008381526020019081526020016000206000828254611e6a9190614059565b925050819055507f59d70e1b512825833c0d38f2b7ce12846777b4d3a962bcf6255661166701e5b485604051611ea09190612d21565b60405180910390a15050505050565b6000611ed08473ffffffffffffffffffffffffffffffffffffffff166122d8565b15612029578373ffffffffffffffffffffffffffffffffffffffff1663150b7a02611ef961109f565b8786866040518563ffffffff1660e01b8152600401611f1b94939291906140e2565b6020604051808303816000875af1925050508015611f5757506040513d601f19601f82011682018060405250810190611f549190614143565b60015b611fd9573d8060008114611f87576040519150601f19603f3d011682016040523d82523d6000602084013e611f8c565b606091505b506000815103611fd1576040517f08c379a0000000000000000000000000000000000000000000000000000000008152600401611fc890613bd4565b60405180910390fd5b805181602001fd5b63150b7a0260e01b7bffffffffffffffffffffffffffffffffffffffffffffffffffffffff1916817bffffffffffffffffffffffffffffffffffffffffffffffffffffffff19161491505061202e565b600190505b949350505050565b606060405180602001604052806000815250905090565b606061205882611054565b6000612062612036565b9050600081511161208257604051806020016040528060008152506120ad565b8061208c846122fb565b60405160200161209d929190613c30565b6040516020818303038152906040525b915050919050565b6120bf83836123c9565b6120cc6000848484611eaf565b61210b576040517f08c379a000000000000000000000000000000000000000000000000000000000815260040161210290613bd4565b60405180910390fd5b505050565b60007f01ffc9a7000000000000000000000000000000000000000000000000000000007bffffffffffffffffffffffffffffffffffffffffffffffffffffffff1916827bffffffffffffffffffffffffffffffffffffffffffffffffffffffff1916149050919050565b612186848484846125e6565b60018111156121ca576040517f08c379a00000000000000000000000000000000000000000000000000000000081526004016121c1906141e2565b60405180910390fd5b6000829050600073ffffffffffffffffffffffffffffffffffffffff168573ffffffffffffffffffffffffffffffffffffffff16036122115761220c816125ec565b612250565b8373ffffffffffffffffffffffffffffffffffffffff168573ffffffffffffffffffffffffffffffffffffffff161461224f5761224e8582612635565b5b5b600073ffffffffffffffffffffffffffffffffffffffff168473ffffffffffffffffffffffffffffffffffffffff16036122925761228d816127a2565b6122d1565b8473ffffffffffffffffffffffffffffffffffffffff168473ffffffffffffffffffffffffffffffffffffffff16146122d0576122cf8482612873565b5b5b5050505050565b6000808273ffffffffffffffffffffffffffffffffffffffff163b119050919050565b60606000600161230a846128f2565b01905060008167ffffffffffffffff81111561232957612328612e32565b5b6040519080825280601f01601f19166020018201604052801561235b5781602001600182028036833780820191505090505b509050600082602001820190505b6001156123be578080600190039150507f3031323334353637383961626364656600000000000000000000000000000000600a86061a8153600a85816123b2576123b1613ff9565b5b04945060008503612369575b819350505050919050565b600073ffffffffffffffffffffffffffffffffffffffff168273ffffffffffffffffffffffffffffffffffffffff1603612438576040517f08c379a000000000000000000000000000000000000000000000000000000000815260040161242f9061424e565b60405180910390fd5b61244181611d51565b15612481576040517f08c379a0000000000000000000000000000000000000000000000000000000008152600401612478906142ba565b60405180910390fd5b61248f600083836001611d92565b61249881611d51565b156124d8576040517f08c379a00000000000000000000000000000000000000000000000000000000081526004016124cf906142ba565b60405180910390fd5b6001600360008473ffffffffffffffffffffffffffffffffffffffff1673ffffffffffffffffffffffffffffffffffffffff16815260200190815260200160002060008282540192505081905550816002600083815260200190815260200160002060006101000a81548173ffffffffffffffffffffffffffffffffffffffff021916908373ffffffffffffffffffffffffffffffffffffffff160217905550808273ffffffffffffffffffffffffffffffffffffffff16600073ffffffffffffffffffffffffffffffffffffffff167fddf252ad1be2c89b69c2b068fc378daa952ba7f163c4a11628f55a4df523b3ef60405160405180910390a46125e2600083836001611da4565b5050565b50505050565b6008805490506009600083815260200190815260200160002081905550600881908060018154018082558091505060019003906000526020600020016000909190919091505550565b60006001612642846108ac565b61264c919061380e565b9050600060076000848152602001908152602001600020549050818114612731576000600660008673ffffffffffffffffffffffffffffffffffffffff1673ffffffffffffffffffffffffffffffffffffffff168152602001908152602001600020600084815260200190815260200160002054905080600660008773ffffffffffffffffffffffffffffffffffffffff1673ffffffffffffffffffffffffffffffffffffffff168152602001908152602001600020600084815260200190815260200160002081905550816007600083815260200190815260200160002081905550505b6007600084815260200190815260200160002060009055600660008573ffffffffffffffffffffffffffffffffffffffff1673ffffffffffffffffffffffffffffffffffffffff16815260200190815260200160002060008381526020019081526020016000206000905550505050565b600060016008805490506127b6919061380e565b90506000600960008481526020019081526020016000205490506000600883815481106127e6576127e56135de565b5b906000526020600020015490508060088381548110612808576128076135de565b5b906000526020600020018190555081600960008381526020019081526020016000208190555060096000858152602001908152602001600020600090556008805480612857576128566142da565b5b6001900381819060005260206000200160009055905550505050565b600061287e836108ac565b905081600660008573ffffffffffffffffffffffffffffffffffffffff1673ffffffffffffffffffffffffffffffffffffffff168152602001908152602001600020600083815260200190815260200160002081905550806007600084815260200190815260200160002081905550505050565b600080600090507a184f03e93ff9f4daa797ed6e38ed64bf6a1f0100000000000000008310612950577a184f03e93ff9f4daa797ed6e38ed64bf6a1f010000000000000000838161294657612945613ff9565b5b0492506040810190505b6d04ee2d6d415b85acef8100000000831061298d576d04ee2d6d415b85acef8100000000838161298357612982613ff9565b5b0492506020810190505b662386f26fc1000083106129bc57662386f26fc1000083816129b2576129b1613ff9565b5b0492506010810190505b6305f5e10083106129e5576305f5e10083816129db576129da613ff9565b5b0492506008810190505b6127108310612a0a576127108381612a00576129ff613ff9565b5b0492506004810190505b60648310612a2d5760648381612a2357612a22613ff9565b5b0492506002810190505b600a8310612a3c576001810190505b80915050919050565b60405180606001604052806060815260200160008152602001600081525090565b6000604051905090565b600080fd5b600080fd5b60007fffffffff0000000000000000000000000000000000000000000000000000000082169050919050565b612aaf81612a7a565b8114612aba57600080fd5b50565b600081359050612acc81612aa6565b92915050565b600060208284031215612ae857612ae7612a70565b5b6000612af684828501612abd565b91505092915050565b60008115159050919050565b612b1481612aff565b82525050565b6000602082019050612b2f6000830184612b0b565b92915050565b600081519050919050565b600082825260208201905092915050565b60005b83811015612b6f578082015181840152602081019050612b54565b60008484015250505050565b6000601f19601f8301169050919050565b6000612b9782612b35565b612ba18185612b40565b9350612bb1818560208601612b51565b612bba81612b7b565b840191505092915050565b60006020820190508181036000830152612bdf8184612b8c565b905092915050565b6000819050919050565b612bfa81612be7565b8114612c0557600080fd5b50565b600081359050612c1781612bf1565b92915050565b600060208284031215612c3357612c32612a70565b5b6000612c4184828501612c08565b91505092915050565b600073ffffffffffffffffffffffffffffffffffffffff82169050919050565b6000612c7582612c4a565b9050919050565b612c8581612c6a565b82525050565b6000602082019050612ca06000830184612c7c565b92915050565b612caf81612c6a565b8114612cba57600080fd5b50565b600081359050612ccc81612ca6565b92915050565b60008060408385031215612ce957612ce8612a70565b5b6000612cf785828601612cbd565b9250506020612d0885828601612c08565b9150509250929050565b612d1b81612be7565b82525050565b6000602082019050612d366000830184612d12565b92915050565b600080600060608486031215612d5557612d54612a70565b5b6000612d6386828701612cbd565b9350506020612d7486828701612cbd565b9250506040612d8586828701612c08565b9150509250925092565b600060208284031215612da557612da4612a70565b5b6000612db384828501612cbd565b91505092915050565b612dc581612aff565b8114612dd057600080fd5b50565b600081359050612de281612dbc565b92915050565b60008060408385031215612dff57612dfe612a70565b5b6000612e0d85828601612cbd565b9250506020612e1e85828601612dd3565b9150509250929050565b600080fd5b600080fd5b7f4e487b7100000000000000000000000000000000000000000000000000000000600052604160045260246000fd5b612e6a82612b7b565b810181811067ffffffffffffffff82111715612e8957612e88612e32565b5b80604052505050565b6000612e9c612a66565b9050612ea88282612e61565b919050565b600067ffffffffffffffff821115612ec857612ec7612e32565b5b612ed182612b7b565b9050602081019050919050565b82818337600083830152505050565b6000612f00612efb84612ead565b612e92565b905082815260208101848484011115612f1c57612f1b612e2d565b5b612f27848285612ede565b509392505050565b600082601f830112612f4457612f43612e28565b5b8135612f54848260208601612eed565b91505092915050565b60008060008060808587031215612f7757612f76612a70565b5b6000612f8587828801612cbd565b9450506020612f9687828801612cbd565b9350506040612fa787828801612c08565b925050606085013567ffffffffffffffff811115612fc857612fc7612a75565b5b612fd487828801612f2f565b91505092959194509250565b600081519050919050565b600082825260208201905092915050565b6000819050602082019050919050565b61301581612c6a565b82525050565b61302481612be7565b82525050565b604082016000820151613040600085018261300c565b506020820151613053602085018261301b565b50505050565b6000613065838361302a565b60408301905092915050565b6000602082019050919050565b600061308982612fe0565b6130938185612feb565b935061309e83612ffc565b8060005b838110156130cf5781516130b68882613059565b97506130c183613071565b9250506001810190506130a2565b5085935050505092915050565b6000819050919050565b6130ef816130dc565b82525050565b60006060830160008301518482036000860152613112828261307e565b9150506020830151613127602086018261301b565b50604083015161313a60408601826130e6565b508091505092915050565b6000602082019050818103600083015261315f81846130f5565b905092915050565b600067ffffffffffffffff82111561318257613181612e32565b5b61318b82612b7b565b9050602081019050919050565b60006131ab6131a684613167565b612e92565b9050828152602081018484840111156131c7576131c6612e2d565b5b6131d2848285612ede565b509392505050565b600082601f8301126131ef576131ee612e28565b5b81356131ff848260208601613198565b91505092915050565b6000806040838503121561321f5761321e612a70565b5b600061322d85828601612cbd565b925050602083013567ffffffffffffffff81111561324e5761324d612a75565b5b61325a858286016131da565b9150509250929050565b6000806040838503121561327b5761327a612a70565b5b600061328985828601612cbd565b925050602061329a85828601612cbd565b9150509250929050565b7f4e487b7100000000000000000000000000000000000000000000000000000000600052602260045260246000fd5b600060028204905060018216806132eb57607f821691505b6020821081036132fe576132fd6132a4565b5b50919050565b7f4552433732313a20617070726f76616c20746f2063757272656e74206f776e6560008201527f7200000000000000000000000000000000000000000000000000000000000000602082015250565b6000613360602183612b40565b915061336b82613304565b604082019050919050565b6000602082019050818103600083015261338f81613353565b9050919050565b7f4552433732313a20617070726f76652063616c6c6572206973206e6f7420746f60008201527f6b656e206f776e6572206f7220617070726f76656420666f7220616c6c000000602082015250565b60006133f2603d83612b40565b91506133fd82613396565b604082019050919050565b60006020820190508181036000830152613421816133e5565b9050919050565b7f4552433732313a2063616c6c6572206973206e6f7420746f6b656e206f776e6560008201527f72206f7220617070726f76656400000000000000000000000000000000000000602082015250565b6000613484602d83612b40565b915061348f82613428565b604082019050919050565b600060208201905081810360008301526134b381613477565b9050919050565b7f455243373231456e756d657261626c653a206f776e657220696e646578206f7560008201527f74206f6620626f756e6473000000000000000000000000000000000000000000602082015250565b6000613516602b83612b40565b9150613521826134ba565b604082019050919050565b6000602082019050818103600083015261354581613509565b9050919050565b7f455243373231456e756d657261626c653a20676c6f62616c20696e646578206f60008201527f7574206f6620626f756e64730000000000000000000000000000000000000000602082015250565b60006135a8602c83612b40565b91506135b38261354c565b604082019050919050565b600060208201905081810360008301526135d78161359b565b9050919050565b7f4e487b7100000000000000000000000000000000000000000000000000000000600052603260045260246000fd5b7f4552433732313a20696e76616c696420746f6b656e2049440000000000000000600082015250565b6000613643601883612b40565b915061364e8261360d565b602082019050919050565b6000602082019050818103600083015261367281613636565b9050919050565b7f4552433732313a2061646472657373207a65726f206973206e6f74206120766160008201527f6c6964206f776e65720000000000000000000000000000000000000000000000602082015250565b60006136d5602983612b40565b91506136e082613679565b604082019050919050565b60006020820190508181036000830152613704816136c8565b9050919050565b60008151905061371a81612ca6565b92915050565b60006020828403121561373657613735612a70565b5b60006137448482850161370b565b91505092915050565b7f4172656e613a2043616e6e6f7420737461727420626174746c6520776974682060008201527f6e6f6e2d6f776e656420746f6b656e0000000000000000000000000000000000602082015250565b60006137a9602f83612b40565b91506137b48261374d565b604082019050919050565b600060208201905081810360008301526137d88161379c565b9050919050565b7f4e487b7100000000000000000000000000000000000000000000000000000000600052601160045260246000fd5b600061381982612be7565b915061382483612be7565b925082820390508181111561383c5761383b6137df565b5b92915050565b7f4172656e613a2043616e6e6f7420737461727420616e6f74686572206261747460008201527f6c65207768696c6520696e20612070656e64696e6720626174746c6500000000602082015250565b600061389e603c83612b40565b91506138a982613842565b604082019050919050565b600060208201905081810360008301526138cd81613891565b9050919050565b7f4f776e61626c653a206e6577206f776e657220697320746865207a65726f206160008201527f6464726573730000000000000000000000000000000000000000000000000000602082015250565b6000613930602683612b40565b915061393b826138d4565b604082019050919050565b6000602082019050818103600083015261395f81613923565b9050919050565b7f4552433732313a207472616e736665722066726f6d20696e636f72726563742060008201527f6f776e6572000000000000000000000000000000000000000000000000000000602082015250565b60006139c2602583612b40565b91506139cd82613966565b604082019050919050565b600060208201905081810360008301526139f1816139b5565b9050919050565b7f4552433732313a207472616e7366657220746f20746865207a65726f2061646460008201527f7265737300000000000000000000000000000000000000000000000000000000602082015250565b6000613a54602483612b40565b9150613a5f826139f8565b604082019050919050565b60006020820190508181036000830152613a8381613a47565b9050919050565b7f4f776e61626c653a2063616c6c6572206973206e6f7420746865206f776e6572600082015250565b6000613ac0602083612b40565b9150613acb82613a8a565b602082019050919050565b60006020820190508181036000830152613aef81613ab3565b9050919050565b7f4552433732313a20617070726f766520746f2063616c6c657200000000000000600082015250565b6000613b2c601983612b40565b9150613b3782613af6565b602082019050919050565b60006020820190508181036000830152613b5b81613b1f565b9050919050565b7f4552433732313a207472616e7366657220746f206e6f6e20455243373231526560008201527f63656976657220696d706c656d656e7465720000000000000000000000000000602082015250565b6000613bbe603283612b40565b9150613bc982613b62565b604082019050919050565b60006020820190508181036000830152613bed81613bb1565b9050919050565b600081905092915050565b6000613c0a82612b35565b613c148185613bf4565b9350613c24818560208601612b51565b80840191505092915050565b6000613c3c8285613bff565b9150613c488284613bff565b91508190509392505050565b7f45524337323155524953746f726167653a2055524920736574206f66206e6f6e60008201527f6578697374656e7420746f6b656e000000000000000000000000000000000000602082015250565b6000613cb0602e83612b40565b9150613cbb82613c54565b604082019050919050565b60006020820190508181036000830152613cdf81613ca3565b9050919050565b60008190508160005260206000209050919050565b60006020601f8301049050919050565b600082821b905092915050565b600060088302613d487fffffffffffffffffffffffffffffffffffffffffffffffffffffffffffffffff82613d0b565b613d528683613d0b565b95508019841693508086168417925050509392505050565b6000819050919050565b6000613d8f613d8a613d8584612be7565b613d6a565b612be7565b9050919050565b6000819050919050565b613da983613d74565b613dbd613db582613d96565b848454613d18565b825550505050565b600090565b613dd2613dc5565b613ddd818484613da0565b505050565b5b81811015613e0157613df6600082613dca565b600181019050613de3565b5050565b601f821115613e4657613e1781613ce6565b613e2084613cfb565b81016020851015613e2f578190505b613e43613e3b85613cfb565b830182613de2565b50505b505050565b600082821c905092915050565b6000613e6960001984600802613e4b565b1980831691505092915050565b6000613e828383613e58565b9150826002028217905092915050565b613e9b82612b35565b67ffffffffffffffff811115613eb457613eb3612e32565b5b613ebe82546132d3565b613ec9828285613e05565b600060209050601f831160018114613efc5760008415613eea578287015190505b613ef48582613e76565b865550613f5c565b601f198416613f0a86613ce6565b60005b82811015613f3257848901518255600182019150602085019450602081019050613f0d565b86831015613f4f5784890151613f4b601f891682613e58565b8355505b6001600288020188555050505b505050505050565b6000819050919050565b613f7f613f7a82612be7565b613f64565b82525050565b60008160601b9050919050565b6000613f9d82613f85565b9050919050565b6000613faf82613f92565b9050919050565b613fc7613fc282612c6a565b613fa4565b82525050565b6000613fd98285613f6e565b602082019150613fe98284613fb6565b6014820191508190509392505050565b7f4e487b7100000000000000000000000000000000000000000000000000000000600052601260045260246000fd5b600061403382612be7565b915061403e83612be7565b92508261404e5761404d613ff9565b5b828206905092915050565b600061406482612be7565b915061406f83612be7565b9250828201905080821115614087576140866137df565b5b92915050565b600081519050919050565b600082825260208201905092915050565b60006140b48261408d565b6140be8185614098565b93506140ce818560208601612b51565b6140d781612b7b565b840191505092915050565b60006080820190506140f76000830187612c7c565b6141046020830186612c7c565b6141116040830185612d12565b818103606083015261412381846140a9565b905095945050505050565b60008151905061413d81612aa6565b92915050565b60006020828403121561415957614158612a70565b5b60006141678482850161412e565b91505092915050565b7f455243373231456e756d657261626c653a20636f6e736563757469766520747260008201527f616e7366657273206e6f7420737570706f727465640000000000000000000000602082015250565b60006141cc603583612b40565b91506141d782614170565b604082019050919050565b600060208201905081810360008301526141fb816141bf565b9050919050565b7f4552433732313a206d696e7420746f20746865207a65726f2061646472657373600082015250565b6000614238602083612b40565b915061424382614202565b602082019050919050565b600060208201905081810360008301526142678161422b565b9050919050565b7f4552433732313a20746f6b656e20616c7265616479206d696e74656400000000600082015250565b60006142a4601c83612b40565b91506142af8261426e565b602082019050919050565b600060208201905081810360008301526142d381614297565b9050919050565b7f4e487b7100000000000000000000000000000000000000000000000000000000600052603160045260246000fdfea26469706673582212204a7d38c66602aeea8da3bc122021409baaaeadbb33fe6cffa1a2a3123e87e82564736f6c63430008110033",
  "linkReferences": {},
  "deployedLinkReferences": {}
}